:030000000218A142
:1018A10078FFE4F6D8FD9000007F007E01E4F0A30C
:0A18B100DFFCDEFA7581D10217B5E5
:1017B500120E4DE4F5083004FDC204E4900024F057
:1017C500900025F0E508700C1218E512001E1200B5
:1017D5000E1218BB12129612000E1214C3E433F542
:0C17E500081210B7E50860CED20480CADC
:10162C0075A4AA75F1AA90FF4174FFF075A56A75AF
:10163C00F25590FF437401F053900775A6FF75F3B4
:10164C00AAA3E4F0F5A075A7AA75F4AA90FF4074BC
:10165C00F0F053B0F090FF1474AAF090FF24F090C7
:10166C00FF4274FFF090FF19740AF090FF2974AADE
:07167C00F090FF09E4F022E9
:100E4D0075FFFB75B73675B12B12162C90FF2B74F1
:100E5D00F8F090FF487440F0E5B230E5FB7F407E3E
:100E6D000612190890FF007483F075B73675B50139
:100E7D00E5B530E4FB7FFF7E0012190875B73675B6
:100E8D00B2020000000075B73675B40190FF1B74F7
:100E9D0077F0758912C28C758AD7758CD7C28EE49E
:100EAD00F58B758DA0F5C8A3F0121855E4F5DCF59A
:100EBD00DBF5ED90FF5074A7F0A37403F0E4F50992
:100ECD00E5092460FFE434FF8F82F58374FFF0059C
:100EDD0009E509B420EAE4F50AF50BE4F50905097D
:100EED00E509B4B4F912000E050BE50B7002050A05
:100EFD00C3940EE50A940640E2E4F509E509246081
:100F0D00FFE434FF8F82F583E4F00509E509B42091
:100F1D00EBE47880F608F608760A08F608760108FC
:100F2D00F608F608F608F608F608F608F6788DF6CF
:100F3D0008F608F675290A752A0A752B0A752C0A02
:100F4D00752D0AF524F525F526F527752801753239
:100F5D0004753304753404753505753604F53C7523
:100F6D003001752E01F522F52FF531900030F090FE
:100F7D000032F090002CF0A3F090002FF090003193
:100F8D00F0900033F090002EF0F50EF510F523C221
:100F9D0008C20AC20943F74053F7DF43F640C2B90E
:0A0FAD00D2A9D2ABD2AFD28CC28E13
:010FB7002217
:0B190800EF1FAC0670011E4C70F622B1
:1018BB00E5117010E523600C120C5C1215C4E47872
:0518CB008BF6F523225D
:10001E00C201E50E601C200A197880E690FF65602B
:10002E0006E054F7F08004E054FEF090FF52E044F6
:10003E0080F0900024E0FF6053751214900025E0CC
:10004E00FE64016035EE64047042EF6432600E901F
:10005E000024E0FF64236005EF6434702F20092C28
:10006E00788AE67027D201900024E0B4320C90FF1B
:10007E0052E0547FF0750EC8D20A120130300103DF
:0D008E00751119900025E060031209412250
:10142E007881E6FF2429F8E67882F674242FF8E610
:10143E007883F6E4F5227880E660217883E67003FF
:10144E004322017884BF03087605788976018006E9
:10145E007604E47889F6788E7601801C788476019D
:10146E00753204753304753404753505753604E428
:10147E0008F67889F6788EF6E47886F608F6F53C66
:10148E0008F6788DF6788FF690FF52E0547FF0E4F0
:10149E00F50EF52F900030F0900032F090002CF009
:1014AE0090002DF090002FF0900031F0900033F06E
:0414BE0090002EF07C
:0114C2002207
:101826007882A62D08A628E52870054322018003A4
:101836005322FE78847604788CA63BE47887F608F3
:0F184600F608F6788DF653227FF51175230122EF
:10013000900024E0FDB4451A788AE6600302094085
:100140009000227405F07880E66401F612142E0205
:100150000405ED6415704C788AE660030209407866
:1001600080E670030209409000227406F0E4F52F47
:10017000788DF653227F7881E6146012146016247D
:10018000FE60192404705478817601020268788137
:1001900076020202D87881760402182678817603E6
:1001A000020343900024E0FF6425600302023178DB
:1001B0008AE660030209409000227406F07880E627
:1001C000701976017883F6788E7601F52F7886F6A9
:1001D00090002CF0900032F05322DF90FF52E05458
:1001E0007FF0E4F50E7886F67882A629788CA6371B
:1001F0007881E6601AE47883F6F52F087604753284
:1002000004F5317887E6F53CE4F67889F6800478E1
:1002100084A632E47881F67883E670054322018073
:10022000035322FEE47888F6788DF653227F02038A
:1002300077EF64EE7067788AE660030209407880A1
:10024000E670030209409000227406F07881E664AB
:1002500001600D7601E4F52F788DF653227F80083A
:10026000788DE660030209407882A62A08A625E573
:1002700025700543220180035322FE7884A633E5CE
:1002800033700543220480035322FBE4F531788C5C
:10029000A6387887A63C08F608F602037790002473
:1002A000E0FF64EE7066788AE660030209407880B9
:1002B000E670030209409000227406F07881E6643B
:1002C00002600D7602E4F52F788DF653227F8008C8
:1002D000788DE660030209407882A62B08A626E501
:1002E00026700543220180035322FE7884A634E55C
:1002F00034700543220480035322FBE4F531788CEB
:10030000A6397887A63C08F608F6806BEF64EE7095
:100310006B788AE660030209407880E67003020980
:10032000409000227406F07881E66403600D760345
:10033000E4F52F788DF653227F8008788DE66003F0
:100340000209407882A62C08A627E52770054322DB
:100350000180035322FE7884A635E53570054322DB
:100360000480035322FB753104788CA63A7887A663
:100370003CE408F6087601F51002091F900024E01D
:10038000FF64236003020409788AE66003020940DF
:100390007880E6700302094008E6FD6404700302F9
:1003A0000940788DE66003020940ED6404700302A1
:1003B0000940E4900022F090002CE0FD7886E6FCF5
:1003C000ED4CFD900032E04D601890FF52E0547FFC
:1003D000F0E4F6F50E200107E510700302046675DF
:1003E00010C87881E6FE700A08E6C3940D500C062A
:1003F00080097882E6C3940E5001067882E6FD7487
:10040000292EF8A605E402091FEF643460030204F4
:1004100099788AE660030209407880E67003020951
:100420004008E6FF64047003020940788DE660032B
:10043000020940EF64047003020940900022740135
:10044000F090002CE0FF7886E6FDEF4DFF90003243
:10045000E04F601E90FF52E0547FF0E4F6F50E206E
:10046000010DE51070097510C8751119F523227575
:1004700010C87881E6FE700A08E6D39407400C168F
:1004800080097882E6D394004001167882E6FF74F2
:10049000292EF8A607E402091F900024E0FF643526
:1004A0006003020526788AE66003020940788DE63B
:1004B00060030209409000227404F07880E6701A0C
:1004C0007885E670030209407883E6B40104760378
:1004D000800478837601E402091F7881E6FE788340
:1004E00006E6B4040BBE040476018004E47883F6C7
:1004F0007883E6FD74242EF8A605ED701D432201D5
:1005000090000DE054FCF0A3E054FCF090FF6DE08F
:1005100054FCF0A3E054FCF080035322FEE4F52FDA
:100520007888F602091FEF64437068788AE66003F2
:100530000209407880E670030209407884E6FF648F
:10054000027003020940EF64037003020940788DD2
:10055000E660030209409000227402F07884E6709D
:100560000476018004E47884F67881E6FFFE7884DE
:10057000E6FD74322EF8A605ED70054322048003D3
:100580005322FBEFB403057531048003E4F531E435
:1005900002091F900024E0FF64147039788AE66035
:1005A000030209407880E67003020940788DE66016
:1005B000030209409000227403F0788C06E6B4062A
:1005C00002E4F67881E6FE788CE6FD74372EF8A614
:1005D00005E402091FEF64337034788AE660030291
:1005E00009407880E67003020940788DE6600302D6
:1005F00009407881E66007640360030209409000C7
:10060000227416F07889E66401F6E402091F90006E
:1006100024E0FF64137047788AE66003020940789B
:100620008DE660030209409000227407F07885E6A9
:100630006401F67880E6701A7885E660067883763D
:1006400001800A7881E62424F8E67883F67885E646
:1006500080057885E66003788EF6E402091FEF6472
:1006600012706F788AE660030209407880E67003B2
:1006700002094008E664047003020940788DE660D0
:1006800003020940900022740BF07887E66401F6BB
:100690007881E660057887E6F53C7887E660144364
:1006A0002240E490002DF090002FF090003174086B
:1006B000F08013E53C700F5322BF90002DF09000A6
:1006C0002FF0900031F07888E6B40102E4F6E402FD
:1006D000091F900024E0FF6441707B788AE6600384
:1006E0000209407880E67003020940788DE66003D5
:1006F0000209407881E6FD7003020940640270033C
:10070000020940ED6404700302094090002274085D
:10071000F07887E6600E08E66004E4F6800F7888DB
:1007200076028009788806E6B40302E4F67888E663
:10073000FD60177883E6601A4322017887E670052A
:10074000ED6402600DE4F52F80087883E6600353C2
:1007500022FEE402091FEF64327061788AE66003CA
:10076000020940788DE66003020940900022740D72
:10077000F07886E6FF6004E50E70217880E67886E2
:10078000600AA62E90FF547465F08008A63090FF92
:10079000547405F090FF527484F08015EFC39418E0
:1007A0007886400406068001067886E6B432027632
:1007B00001E4F510750EC8F511F52322900024E030
:1007C000FF64316003020857788AE660030209403B
:1007D00090002CE0FD7886E6FCED4CFD900032E0C8
:1007E0004D70030209409000227410F0E50E604540
:1007F00090FF52E0547FF04322207880E660048C22
:100800002E80097886E6F530788476017886E6FED3
:10081000E4900030F0EEC31390002CF0EEC3941877
:10082000500CEE30E008900032741EF08020E4900E
:100830000032F080197880E67004788476015322C3
:10084000DFE4900030F0900032F090002CF0E4787B
:1008500086F6F50E02091FEFB4111A788AE66003D6
:10086000020940788DE66003020940900022741569
:10087000F0E402091F900024E0FF6444705C788D6E
:10088000E66003020940788AE66003020940788046
:10089000E6B4010708E67003020940900032E0FD6B
:1008A00090002CE04D60030209407887E660030267
:1008B00009409000227419F0788D7601432280E47B
:1008C000900033F090002E7415F0E47886F6F50E63
:1008D00090FF52E0547FF0E48045EFB42419788A09
:1008E000E6705D788DE67058900022740CF0788E7A
:1008F000E66401F6E48028900024E0FF644270255D
:10090000788AE6703B788DE670367880E6603190C4
:1009100000227402F0788F06E6B40402E4F6E4F5EF
:100920001175230122EFB45317788DE670129000F1
:10093000227414F0788AE66401F6E4F51175230454
:010940002294
:1018E50030050E1211AC900020EFF01216D7120F32
:0218F500B82217
:1011AC00E4F50AF50BF50C12000E53F6BF75A6FF0D
:1011BC00E4F509E50914600C14600E2402700F7537
:1011CC00A00E800D75A00D800875A00B800375A076
:1011DC00077F187E00121908E59054F864F86056E1
:1011EC00E4FD74087E00A805088005C333CE33CE19
:1011FC00D8F9FFAC90ECFBEF5B7037050AE50AC33E
:10120C0094034005E4F5A08075E5092401FFE4335F
:10121C00FEEFC4F8540FC868FBEEC454F048FAE56E
:10122C000C4AFEEBFFED2401FBE4334EF50BEB4FC8
:10123C00F50C0DBD05AC0509E509C394045003027A
:10124C0011BFE4F5A0E50AB40107E50CF509AF09F7
:10125C0022E50A6402702CE50CB44108E50BB434A9
:10126C00037F5122E50CB44108E50BB423037F52F4
:10127C0022E50CB43408E50BB423037F5322C200DF
:09128C007FFE22C200C2097F00AE
:011295002236
:1016D70090002BE0FF900020E0FE6F600C90002B45
:1016E700EEF09000237404F022900023E0600314CE
:1016F700F022D2039000237404F090002AE0B5068C
:1017070009900029E0601B14F022900020E090006F
:101717002AF0600E900026F0A3E07006900029746E
:031727003CF02271
:100FB8002003030210B6C20390002AE0703BC20A65
:100FC800900027E07007900025F002105990002942
:100FD800E0C3941E90002540057402F08003740558
:100FE800F0E4F511900026E0900024F0E49000264B
:100FF800F0A3F0C20543F64022900027E0FF701DE1
:1010080090002504F0900028F090002AE090002736
:10101800F0900024F0E4900021F0C2022290002613
:10102800E06F7032900029E0FFB42D0E9000257417
:1010380003F0900029E014F08013EFD39426500DAC
:101048009000257404F07FC07E5D12190890002A74
:10105800E0900024F022900021E07008900027E042
:10106800900021F090002AE0900024F0645160057F
:10107800E0FFB452089000257401F0801CE4900051
:1010880025F0900027E0D39445400EEF64236007D5
:10109800900024E0B43402D209900029743CF0A3F3
:0F10A800E0900026F0A3F0D202E4F511F5232228
:0A00A6005F506B79743D3F587F7D79
:100941007880E660030209CBF50A7400250AF58276
:10095100E43400F583E4F0050AE50AB420EC788A72
:10096100E66007900008E04401F090002CE0FF7879
:100971008646FE900032E0FD4E6013EF4D600A9016
:10098100000FE04401F01217F112137E8012788DEE
:10099100E6600D900002E04407F0900004740FF04F
:1009A1007885E6602290000FE04408F07883E6B491
:1009B100030E90000EE04403F090000DE04403F0BC
:1009C10090000CE04403F0020C587883E66010E5D7
:1009D1002220E00BE490000CF0A3F0A3F0802D9016
:1009E100000CE054F3F0E52F146011147016900020
:1009F1000DE054F3F0A3E054F3F0801090000DE00B
:100A010054F3800490000DE4F0A3E4F07884E660F0
:100A11000BE4900009F0A3F0A3F0802BE531600313
:100A2100B40413900009E054F0F0A3E054F0F0A3F3
:100A3100E054F0F08011900009E054F6F0A3E05486
:100A4100F7F0A3E054F3F0E4F50A7400250AF58207
:100A5100E43400F583E4F0050AE50AB409EC750A0B
:100A61000F7400250AF582E43400F583E4F0050AE9
:100A7100E50AB420EC90000FE04401F0788AE660CA
:100A810007900008E04401F01217F190002CE07883
:100A91008646FF900032E04F6007E5107003020BBD
:100AA10048788DE66010900002E04407F090000461
:100AB100740FF0020B4B7881E67052F50A08E624B8
:100AC100F8601314601224FE602814602314601E61
:100AD10024067076050A050A050A900000E0440420
:100AE100F0A3E04408F0900003E0440A8018050AEE
:100AF100050A050A900000E04404F0A3E04408F070
:100B0100900003E04408F07D02AF0A80357881E669
:100B1100D394035035900000E04404F0A3E044086E
:100B2100F0900003E04408F008E62410F50A75F09F
:100B31000A84FF7D01121770E50A75F00A84AFF08F
:100B41007D02121770800312137E90000CE04403A3
:100B5100F0E52220E0187883E624FE600A14700E86
:100B610090000EE04403F090000DE04403F078841F
:100B7100E6FD6401604790000AE04401F0A3E0440F
:100B810002F0ED24FE601424FE601714600B2402B1
:100B9100701290000AE04402F0801B900009E044CA
:100BA10004F08004E5317009900009E04402F0800E
:100BB1000CE531B4040790000BE04401F090000C07
:100BC100E04404F090000EE04408F0788CE61460F4
:100BD1001A14601C14602214602414602624057009
:100BE1003890000CE04408F0A3800890000B8025A9
:100BF10090000BE04408F0802090000D80179000D9
:100C01000E801290000BE0440CF0A3E04408F0A326
:100C1100E0440CF0A3E04404F07885E6600790001E
:100C21000FE04408F07887E66007900010E0440484
:100C3100F07888E624FE600C04701090000FE04408
:100C410002F08007900010E04401F07889E6600727
:0A0C5100900010E04408F012188132
:010C5B002276
:1017F1007881E614601214601414601914601E24B8
:10180100047021900007801090000780039000066B
:10181100E04401F022900006E04408F02290000626
:05182100E04404F02288
:10137E00E50E60077886E6F50B8032900032E0FFCE
:10138E00602390002CE0FEC3940C500EEF941E4090
:10139E0009EE25E02402F50B801390002CE025E0E9
:1013AE0004F50B800890002CE025E0F50BE50BC34F
:1013BE0094185029E50B30E007900000E04401F04E
:1013CE00E50BD3941340127D017F01121770E50BCC
:1013DE0075F01484AFF0EF8026E50B8022E50B75D7
:1013EE00F01484E5F030E002050BE50B75F0148483
:1013FE00FF7D01121770E50B75F01484AFF0EFC38B
:10140E0013FF7D02121770E50E6003300A1178800B
:0F141E00E69000056005E04408F022E04401F08C
:01142D00229C
:10177000AB07ED24FE601E04703A900003E0FEEB20
:101780009000A693FDC4540FFCEE4C900003F0A310
:10179000E0FFED8019900001E0FFEB9000A693FEC2
:1017A000C4540FFDEF4D900001F0A3E0FFEE540F85
:0517B000FEEF4EF022E7
:10188100E4FF74002FF582E43400F583E0FEEF24D9
:0F18910060FDE434FF8D82F583EEF00FBF20E39E
:0118A0002225
:1012960020070302137D7880E6700302137DC207E0
:1012A6007883E660057888E66034E52220E003432B
:1012B6002201052FE52FB40303E4F52F90000DE07E
:1012C60054FCF0A3E054FCF0E52F14600A14700EF1
:1012D60090000EE04403F090000DE04403F07884A3
:1012E600E6706CE52220E2034322040531E531B4C1
:1012F6000803E4F531900009E054F9F0A3E054F94D
:10130600F0A3E054FEF0E531B40800504290131A01
:10131600F828287302133202133702133C021345CE
:1013260002134E02134502133C0213379000098044
:1013360011900009800390000AE04404F0801090A8
:10134600000AE04402F0800790000BE04401F090B0
:101356000009E090FF69F090000AE090FF6AF090C3
:10136600000BE090FF6BF090000DE090FF6DF090A9
:08137600000EE090FF6EF02272
:1014C300900024E04512450E4510600302155612A4
:1014D300162C300805C208120941E4F5DBC2A9C283
:1014E300ABC28CC28EC2AF75B73653B1FD43F64063
:1014F30085AF09F5AF85AF09F5AFC2050000D2AFDF
:10150300A2067205400512000E80F57F027E0012CE
:10151300190830051C751214C2AF75B73675B501BD
:10152300D2AFE5B530E4FBC2AF75B73675B202D2C0
:10153300AF7F027E00121908C2AF75B73675B401CA
:1015430075B73643B102D2AFD2A9D28CD2AB300633
:0415530002D322C3DA
:011557002271
:1010B700E5227003021183E5C920E30643F62043C6
:1010C700C9082006030211ABC206E52230E54C90A1
:1010D7000030E004F0E0643C7041F0900032E070D2
:1010E70008743BF090002C8003900032E014F090DD
:1010F7000032E0B41E0B90002CE0C3940C501C800F
:1011070017900032E0701490002CE0700BC2067844
:1011170080E66401F612142E120941E52230E63703
:1011270090002DE004F0E0643C702CF090002FE07C
:101137007008743BF0900031800390002FE014F0AA
:1011470090002FE07011900031E0700BC20678809C
:10115700F612142E120941E52230E748900033E0D9
:1011670004F0E0643C703DF090002EE014F0E07075
:1011770033C20653227F788DF6020941121855C2F1
:1011870006C207E4900030F0900032F090002CF097
:1011970090002DF090002FF0900031F0900033F088
:0511A70090002EF02273
:10185500AFC975C98190FF0BE0FF1FEFF0AFC975E8
:10186500C981AFC975C989AFC9EF30E6FA90FF0BD9
:0B18750074C0F0AFC975C98353F6DFE3
:011880002245
:0C000E00E4F5FDF5FE75FD3975FEC62217
:03000B0002155883
:10155800C0E0C083C082C0D075D000C000D204E50E
:101568000FC3940A5004050F8003750F00E50F7030
:1015780040E512D3940040021512E511D3940040BF
:10158800021511E50ED394004010D50E0D7886761D
:101598000090FF52E0547FF0D208E510D394004049
:1015A80010D5100DE52230E506900022740DF0D21A
:0C15B80008D000D0D0D082D083D0E03228
:03001B00021913B4
:0B191300C28EC28F758B00758DF03204
:03009B000218F751
:1018F700C0E0D206D207E5C930E60353C9BFD0E03E
:0119070032AD
:0300A3000218D070
:1018D000D20553F6BF85AF0D75AF0085AF0D75AF5F
:0418E0000043F6408B
:0118E40032D1
:07000300E4FF000FBF72FBD8
:01000A0022D3
:02172A00AC070A
:10172C00E4FBEBC39D503CEC30E715D2B012000348
:10173C00C2B012000312000300000000000080077A
:10174C00D2B0120003C2B0ED14B50309E4FE000ED2
:10175C00BE69FB8007E4FE000EBE6FFBEC25E0FCCF
:03176C000B80BF30
:01176F002257
:1015C40090FF69E04401F075DEDB75DFEE43DB80FC
:1015D40053F6BFC2A9D2B07F3E7E01121908C2B031
:1015E4007F3D7E01121908D2B07F3E7E0112190898
:1015F400C2B07FCB7E01121908E4FA74B22AF8E66D
:10160400FF7D0812172A0ABA0EF1E4FA000ABA0595
:10161400FBD2B0120003C2B043F640D2A953DB7F21
:0716240090FF69E054FEF0A5
:01162B00229C
:1016830090002CE0FF900031E0FEC39F500A78B732
:10169300EE26F690002F8037EEB50728900032E053
:1016A300FF90002FE0FED39F500D900031E078B7FC
:1016B30026F608EE26F62290002CE078B726F608E8
:1016C300EF26F62290002CE078B726F6900032E061
:0416D3000826F622CD
:100C5C007D2078B2E4F608DDFC7D2078B276A678AB
:100C6C0080E6600678B6E64440F67881E614600DBE
:100C7C0014601214601714601C2404801E78B9745C
:100C8C002026F6801678B9744026F6800E78B97452
:100C9C008026F6800678B974C026F67882E6C454AD
:100CAC00F078B326F678BCE654DFF67883E6146069
:100CBC001214601714601C2403701E78B774A026DD
:100CCC00F6801678B7746026F6800E78B7744026D6
:100CDC00F6800678B7742026F67884E6146018142B
:100CEC00601714601914601D14602024057022789C
:100CFC00B3740C26F6801A801878B306801378B378
:100D0C00060606800C78B30606800678B3740A26AD
:100D1C00F6788CE614601014601514601A14601FB9
:100D2C001460242405802678B4746026F6801E781E
:100D3C00B4748026F6801678B474A026F6800E78EB
:100D4C00B474C026F6800678B474E026F67885E68E
:100D5C00600678B5E64402F67888E6C4333354C0AE
:100D6C0078B826F67889E6600678B6E64480F67898
:100D7C008DE6600678BAE64440F6788EE660067832
:100D8C00BCE64410F6788FE6FC25E025E078B52625
:100D9C00F6788AE6600678BEE64420F6788BE66044
:100DAC000678BEE64440F6900032E0FB90002CE062
:100DBC00FA4B60547880E6602C78B5E64420F678DF
:100DCC0087E6600B78BAE64480F61216838053EA05
:100DDC00B4180478B7801E90002CE078B726F6087B
:100DEC00EB26F6803D78B5E64440F690002CE0FF0B
:100DFC0078B9B4180B741726F608743B26F68022C3
:100E0C00EF26F690003280167887E6601578BAE601
:100E1C004480F6900031E078B726F690002FE00879
:100E2C0026F6900022E078BE26F6E64480F6E4FC36
:100E3C00FD74B22DF8E62CFC0DBD0DF578BFA604A3
:010E4C002283
:00000001FF
